{
  "contractName": "Whitelist",
  "abi": [
    {
      "constant": true,
      "inputs": [
        {
          "name": "",
          "type": "bytes32"
        }
      ],
      "name": "ProductToProductID",
      "outputs": [
        {
          "name": "id",
          "type": "bytes32"
        },
        {
          "name": "price",
          "type": "uint256"
        },
        {
          "name": "owner",
          "type": "address"
        }
      ],
      "payable": false,
      "stateMutability": "view",
      "type": "function"
    },
    {
      "constant": true,
      "inputs": [
        {
          "name": "",
          "type": "uint256"
        }
      ],
      "name": "products",
      "outputs": [
        {
          "name": "id",
          "type": "bytes32"
        },
        {
          "name": "price",
          "type": "uint256"
        },
        {
          "name": "owner",
          "type": "address"
        }
      ],
      "payable": false,
      "stateMutability": "view",
      "type": "function"
    },
    {
      "constant": true,
      "inputs": [
        {
          "name": "",
          "type": "address"
        }
      ],
      "name": "whiteListAddresses",
      "outputs": [
        {
          "name": "",
          "type": "bool"
        }
      ],
      "payable": false,
      "stateMutability": "view",
      "type": "function"
    },
    {
      "inputs": [],
      "payable": false,
      "stateMutability": "nonpayable",
      "type": "constructor"
    },
    {
      "constant": false,
      "inputs": [
        {
          "name": "buyer",
          "type": "address"
        }
      ],
      "name": "whiteListAddress",
      "outputs": [],
      "payable": false,
      "stateMutability": "nonpayable",
      "type": "function"
    },
    {
      "constant": false,
      "inputs": [
        {
          "name": "_id",
          "type": "bytes32"
        },
        {
          "name": "_price",
          "type": "uint256"
        }
      ],
      "name": "addProduct",
      "outputs": [],
      "payable": false,
      "stateMutability": "nonpayable",
      "type": "function"
    },
    {
      "constant": false,
      "inputs": [
        {
          "name": "_id",
          "type": "bytes32"
        }
      ],
      "name": "buyProduct",
      "outputs": [],
      "payable": true,
      "stateMutability": "payable",
      "type": "function"
    },
    {
      "constant": true,
      "inputs": [],
      "name": "getProductCount",
      "outputs": [
        {
          "name": "",
          "type": "uint256"
        }
      ],
      "payable": false,
      "stateMutability": "view",
      "type": "function"
    },
    {
      "constant": true,
      "inputs": [
        {
          "name": "_from",
          "type": "address"
        },
        {
          "name": "_id",
          "type": "bytes32"
        }
      ],
      "name": "productOwnerCheck",
      "outputs": [
        {
          "name": "",
          "type": "bool"
        }
      ],
      "payable": false,
      "stateMutability": "view",
      "type": "function"
    }
  ],
  "bytecode": "0x608060405234801561001057600080fd5b50336000806101000a81548173ffffffffffffffffffffffffffffffffffffffff021916908373ffffffffffffffffffffffffffffffffffffffff1602179055506108bf806100606000396000f30060806040526004361061008e576000357c0100000000000000000000000000000000000000000000000000000000900463ffffffff168063194c9d2e146100935780634a348da9146100ce578063725ada25146100f957806374aa83bc146101625780637acc0b20146101e9578063920674dc1461026c578063943a4dfc146102c7578063cf52a7b2146102eb575b600080fd5b34801561009f57600080fd5b506100cc60048036038101908080356000191690602001909291908035906020019092919050505061032e565b005b3480156100da57600080fd5b506100e36104dd565b6040518082815260200191505060405180910390f35b34801561010557600080fd5b50610148600480360381019080803573ffffffffffffffffffffffffffffffffffffffff16906020019092919080356000191690602001909291905050506104ea565b604051808215151515815260200191505060405180910390f35b34801561016e57600080fd5b506101916004803603810190808035600019169060200190929190505050610577565b6040518084600019166000191681526020018381526020018273ffffffffffffffffffffffffffffffffffffffff1673ffffffffffffffffffffffffffffffffffffffff168152602001935050505060405180910390f35b3480156101f557600080fd5b50610214600480360381019080803590602001909291905050506105c1565b6040518084600019166000191681526020018381526020018273ffffffffffffffffffffffffffffffffffffffff1673ffffffffffffffffffffffffffffffffffffffff168152602001935050505060405180910390f35b34801561027857600080fd5b506102ad600480360381019080803573ffffffffffffffffffffffffffffffffffffffff16906020019092919050505061061a565b604051808215151515815260200191505060405180910390f35b6102e9600480360381019080803560001916906020019092919050505061063a565b005b3480156102f757600080fd5b5061032c600480360381019080803573ffffffffffffffffffffffffffffffffffffffff1690602001909291905050506107a1565b005b610336610858565b600260003373ffffffffffffffffffffffffffffffffffffffff1673ffffffffffffffffffffffffffffffffffffffff16815260200190815260200160002060009054906101000a900460ff16151561038e57600080fd5b606060405190810160405280846000191681526020018381526020013373ffffffffffffffffffffffffffffffffffffffff16815250905060018190806001815401808255809150509060018203906000526020600020906003020160009091929091909150600082015181600001906000191690556020820151816001015560408201518160020160006101000a81548173ffffffffffffffffffffffffffffffffffffffff021916908373ffffffffffffffffffffffffffffffffffffffff16021790555050505080600360008560001916600019168152602001908152602001600020600082015181600001906000191690556020820151816001015560408201518160020160006101000a81548173ffffffffffffffffffffffffffffffffffffffff021916908373ffffffffffffffffffffffffffffffffffffffff160217905550905050505050565b6000600180549050905090565b60008060036000846000191660001916815260200190815260200160002090508373ffffffffffffffffffffffffffffffffffffffff168160020160009054906101000a900473ffffffffffffffffffffffffffffffffffffffff1673ffffffffffffffffffffffffffffffffffffffff16141561056b5760019150610570565b600091505b5092915050565b60036020528060005260406000206000915090508060000154908060010154908060020160009054906101000a900473ffffffffffffffffffffffffffffffffffffffff16905083565b6001818154811015156105d057fe5b90600052602060002090600302016000915090508060000154908060010154908060020160009054906101000a900473ffffffffffffffffffffffffffffffffffffffff16905083565b60026020528060005260406000206000915054906101000a900460ff1681565b6000803373ffffffffffffffffffffffffffffffffffffffff161415151561066157600080fd5b60036000836000191660001916815260200190815260200160002090508060020160009054906101000a900473ffffffffffffffffffffffffffffffffffffffff1673ffffffffffffffffffffffffffffffffffffffff163373ffffffffffffffffffffffffffffffffffffffff16141515156106dd57600080fd5b8060010154341415156106ef57600080fd5b8060020160009054906101000a900473ffffffffffffffffffffffffffffffffffffffff1673ffffffffffffffffffffffffffffffffffffffff166108fc349081150290604051600060405180830381858888f19350505050158015610759573d6000803e3d6000fd5b50338160020160006101000a81548173ffffffffffffffffffffffffffffffffffffffff021916908373ffffffffffffffffffffffffffffffffffffffff1602179055505050565b6000809054906101000a900473ffffffffffffffffffffffffffffffffffffffff1673ffffffffffffffffffffffffffffffffffffffff163373ffffffffffffffffffffffffffffffffffffffff161415156107fc57610855565b6001600260008373ffffffffffffffffffffffffffffffffffffffff1673ffffffffffffffffffffffffffffffffffffffff16815260200190815260200160002060006101000a81548160ff0219169083151502179055505b50565b6060604051908101604052806000801916815260200160008152602001600073ffffffffffffffffffffffffffffffffffffffff16815250905600a165627a7a7230582014925ca8361e3474db903da4fd019b9a7fea6db11bf7c8b9d4138e2992f126700029",
  "source": "pragma solidity ^0.4.23;\n\ncontract Whitelist {\n\n\n  address admin;\n\n  //constructor function to initialize contract\n  constructor() public{\n\n      //assign contract creator as admin for this contract. \n      admin = msg.sender;\n  }\n\n  struct Product{\n      bytes32 id;\n      uint256 price;\n      address owner;\n  }\n\n  Product[] public products; \n  mapping(address => bool) public whiteListAddresses;\n\n  mapping (bytes32 => Product) public ProductToProductID;\n\n\n  //This is implement to show that this can be done with this modifier approach\n   modifier onlyAllowedSeller() {\n        if (!whiteListAddresses[msg.sender]) {\n            revert();\n        }\n        _;\n    }\n\n  function whiteListAddress(address buyer) public{\n    //A modifier is also can be written instead inside function check\n    if (msg.sender != admin) return;\n\n    //enable that the buyer is listed for adding products\n    whiteListAddresses[buyer] = true;\n  }\n\n\n  //add product in the array structure and store _id for mapping for its retrival \n  function addProduct(bytes32 _id, uint256 _price) public onlyAllowedSeller{\n       \n        Product memory product = Product(\n            _id,\n            _price,\n            msg.sender\n        );\n        products.push(product);\n\n        ProductToProductID[_id] = product;\n  }\n\n  //If buyer sends equal amount of product.price then money will be transfer to seller and product ownership is changed\n  function buyProduct(bytes32 _id) public payable{\n        require(msg.sender != 0);  //check for null address\n        Product storage product = ProductToProductID[_id];\n        require(msg.sender != product.owner);\n        require(msg.value == product.price);\n        product.owner.transfer(msg.value);\n        product.owner = msg.sender; \n  }\n\n//lists the count of products available on the system\n  function getProductCount() public view returns(uint256){\n    return products.length;\n  }\n\n  //Verifies current ownership of the product\n  function productOwnerCheck(address _from, bytes32 _id) public view returns(bool){\n        Product storage product = ProductToProductID[_id];\n        if (product.owner == _from){\n            return true;\n        }else {\n            return false;\n        }\n  }\n\n}",
  "sourcePath": "/home/ynkumar/bspl/bc/eth-shop/contracts/Whitelist.sol",
  "compiler": {
    "name": "solc",
    "version": "0.4.24+commit.e67f0147.Emscripten.clang"
  },
  "schemaVersion": "2.0.1",
  "updatedAt": "2018-10-10T09:40:38.860Z"
}